{
  "_format": "hh-sol-artifact-1",
  "contractName": "BorrowYourCar",
  "sourceName": "contracts/BorrowYourCar.sol",
  "abi": [
    {
      "inputs": [
        {
          "internalType": "address",
          "name": "tokenAddress",
          "type": "address"
        }
      ],
      "stateMutability": "nonpayable",
      "type": "constructor"
    },
    {
      "inputs": [
        {
          "internalType": "address",
          "name": "sender",
          "type": "address"
        },
        {
          "internalType": "uint256",
          "name": "tokenId",
          "type": "uint256"
        },
        {
          "internalType": "address",
          "name": "owner",
          "type": "address"
        }
      ],
      "name": "ERC721IncorrectOwner",
      "type": "error"
    },
    {
      "inputs": [
        {
          "internalType": "address",
          "name": "operator",
          "type": "address"
        },
        {
          "internalType": "uint256",
          "name": "tokenId",
          "type": "uint256"
        }
      ],
      "name": "ERC721InsufficientApproval",
      "type": "error"
    },
    {
      "inputs": [
        {
          "internalType": "address",
          "name": "approver",
          "type": "address"
        }
      ],
      "name": "ERC721InvalidApprover",
      "type": "error"
    },
    {
      "inputs": [
        {
          "internalType": "address",
          "name": "operator",
          "type": "address"
        }
      ],
      "name": "ERC721InvalidOperator",
      "type": "error"
    },
    {
      "inputs": [
        {
          "internalType": "address",
          "name": "owner",
          "type": "address"
        }
      ],
      "name": "ERC721InvalidOwner",
      "type": "error"
    },
    {
      "inputs": [
        {
          "internalType": "address",
          "name": "receiver",
          "type": "address"
        }
      ],
      "name": "ERC721InvalidReceiver",
      "type": "error"
    },
    {
      "inputs": [
        {
          "internalType": "address",
          "name": "sender",
          "type": "address"
        }
      ],
      "name": "ERC721InvalidSender",
      "type": "error"
    },
    {
      "inputs": [
        {
          "internalType": "uint256",
          "name": "tokenId",
          "type": "uint256"
        }
      ],
      "name": "ERC721NonexistentToken",
      "type": "error"
    },
    {
      "anonymous": false,
      "inputs": [
        {
          "indexed": true,
          "internalType": "address",
          "name": "owner",
          "type": "address"
        },
        {
          "indexed": true,
          "internalType": "address",
          "name": "approved",
          "type": "address"
        },
        {
          "indexed": true,
          "internalType": "uint256",
          "name": "tokenId",
          "type": "uint256"
        }
      ],
      "name": "Approval",
      "type": "event"
    },
    {
      "anonymous": false,
      "inputs": [
        {
          "indexed": true,
          "internalType": "address",
          "name": "owner",
          "type": "address"
        },
        {
          "indexed": true,
          "internalType": "address",
          "name": "operator",
          "type": "address"
        },
        {
          "indexed": false,
          "internalType": "bool",
          "name": "approved",
          "type": "bool"
        }
      ],
      "name": "ApprovalForAll",
      "type": "event"
    },
    {
      "anonymous": false,
      "inputs": [
        {
          "indexed": false,
          "internalType": "uint256",
          "name": "carId",
          "type": "uint256"
        },
        {
          "indexed": false,
          "internalType": "address",
          "name": "borrower",
          "type": "address"
        },
        {
          "indexed": false,
          "internalType": "uint256",
          "name": "startTime",
          "type": "uint256"
        },
        {
          "indexed": false,
          "internalType": "uint256",
          "name": "duration",
          "type": "uint256"
        }
      ],
      "name": "CarBorrowed",
      "type": "event"
    },
    {
      "anonymous": false,
      "inputs": [
        {
          "indexed": true,
          "internalType": "address",
          "name": "from",
          "type": "address"
        },
        {
          "indexed": true,
          "internalType": "address",
          "name": "to",
          "type": "address"
        },
        {
          "indexed": true,
          "internalType": "uint256",
          "name": "tokenId",
          "type": "uint256"
        }
      ],
      "name": "Transfer",
      "type": "event"
    },
    {
      "inputs": [],
      "name": "addCar",
      "outputs": [],
      "stateMutability": "nonpayable",
      "type": "function"
    },
    {
      "inputs": [
        {
          "internalType": "address",
          "name": "to",
          "type": "address"
        },
        {
          "internalType": "uint256",
          "name": "tokenId",
          "type": "uint256"
        }
      ],
      "name": "approve",
      "outputs": [],
      "stateMutability": "nonpayable",
      "type": "function"
    },
    {
      "inputs": [
        {
          "internalType": "uint256",
          "name": "",
          "type": "uint256"
        }
      ],
      "name": "availableCars",
      "outputs": [
        {
          "internalType": "uint256",
          "name": "",
          "type": "uint256"
        }
      ],
      "stateMutability": "view",
      "type": "function"
    },
    {
      "inputs": [
        {
          "internalType": "address",
          "name": "owner",
          "type": "address"
        }
      ],
      "name": "balanceOf",
      "outputs": [
        {
          "internalType": "uint256",
          "name": "",
          "type": "uint256"
        }
      ],
      "stateMutability": "view",
      "type": "function"
    },
    {
      "inputs": [
        {
          "internalType": "uint256",
          "name": "carId",
          "type": "uint256"
        },
        {
          "internalType": "uint256",
          "name": "duration",
          "type": "uint256"
        }
      ],
      "name": "borrowCar",
      "outputs": [],
      "stateMutability": "nonpayable",
      "type": "function"
    },
    {
      "inputs": [
        {
          "internalType": "uint256",
          "name": "",
          "type": "uint256"
        }
      ],
      "name": "borrowedCars",
      "outputs": [
        {
          "internalType": "uint256",
          "name": "",
          "type": "uint256"
        }
      ],
      "stateMutability": "view",
      "type": "function"
    },
    {
      "inputs": [
        {
          "internalType": "uint256",
          "name": "",
          "type": "uint256"
        }
      ],
      "name": "cars",
      "outputs": [
        {
          "internalType": "address",
          "name": "owner",
          "type": "address"
        },
        {
          "internalType": "address",
          "name": "borrower",
          "type": "address"
        },
        {
          "internalType": "uint256",
          "name": "borrowUntil",
          "type": "uint256"
        },
        {
          "internalType": "bool",
          "name": "isAvailable",
          "type": "bool"
        }
      ],
      "stateMutability": "view",
      "type": "function"
    },
    {
      "inputs": [
        {
          "internalType": "uint256",
          "name": "tokenId",
          "type": "uint256"
        }
      ],
      "name": "getApproved",
      "outputs": [
        {
          "internalType": "address",
          "name": "",
          "type": "address"
        }
      ],
      "stateMutability": "view",
      "type": "function"
    },
    {
      "inputs": [],
      "name": "getAvailableCars",
      "outputs": [
        {
          "internalType": "uint256[]",
          "name": "",
          "type": "uint256[]"
        }
      ],
      "stateMutability": "view",
      "type": "function"
    },
    {
      "inputs": [
        {
          "internalType": "uint256",
          "name": "carId",
          "type": "uint256"
        }
      ],
      "name": "getBorrower",
      "outputs": [
        {
          "internalType": "address",
          "name": "",
          "type": "address"
        }
      ],
      "stateMutability": "view",
      "type": "function"
    },
    {
      "inputs": [],
      "name": "getOwnedCars",
      "outputs": [
        {
          "internalType": "uint256[]",
          "name": "",
          "type": "uint256[]"
        }
      ],
      "stateMutability": "view",
      "type": "function"
    },
    {
      "inputs": [
        {
          "internalType": "uint256",
          "name": "carId",
          "type": "uint256"
        }
      ],
      "name": "getOwner",
      "outputs": [
        {
          "internalType": "address",
          "name": "",
          "type": "address"
        }
      ],
      "stateMutability": "view",
      "type": "function"
    },
    {
      "inputs": [
        {
          "internalType": "address",
          "name": "owner",
          "type": "address"
        },
        {
          "internalType": "address",
          "name": "operator",
          "type": "address"
        }
      ],
      "name": "isApprovedForAll",
      "outputs": [
        {
          "internalType": "bool",
          "name": "",
          "type": "bool"
        }
      ],
      "stateMutability": "view",
      "type": "function"
    },
    {
      "inputs": [],
      "name": "name",
      "outputs": [
        {
          "internalType": "string",
          "name": "",
          "type": "string"
        }
      ],
      "stateMutability": "view",
      "type": "function"
    },
    {
      "inputs": [
        {
          "internalType": "address",
          "name": "",
          "type": "address"
        },
        {
          "internalType": "uint256",
          "name": "",
          "type": "uint256"
        }
      ],
      "name": "ownedCars",
      "outputs": [
        {
          "internalType": "uint256",
          "name": "",
          "type": "uint256"
        }
      ],
      "stateMutability": "view",
      "type": "function"
    },
    {
      "inputs": [
        {
          "internalType": "uint256",
          "name": "tokenId",
          "type": "uint256"
        }
      ],
      "name": "ownerOf",
      "outputs": [
        {
          "internalType": "address",
          "name": "",
          "type": "address"
        }
      ],
      "stateMutability": "view",
      "type": "function"
    },
    {
      "inputs": [],
      "name": "qiushiToken",
      "outputs": [
        {
          "internalType": "contract QiushiToken",
          "name": "",
          "type": "address"
        }
      ],
      "stateMutability": "view",
      "type": "function"
    },
    {
      "inputs": [
        {
          "internalType": "address",
          "name": "from",
          "type": "address"
        },
        {
          "internalType": "address",
          "name": "to",
          "type": "address"
        },
        {
          "internalType": "uint256",
          "name": "tokenId",
          "type": "uint256"
        }
      ],
      "name": "safeTransferFrom",
      "outputs": [],
      "stateMutability": "nonpayable",
      "type": "function"
    },
    {
      "inputs": [
        {
          "internalType": "address",
          "name": "from",
          "type": "address"
        },
        {
          "internalType": "address",
          "name": "to",
          "type": "address"
        },
        {
          "internalType": "uint256",
          "name": "tokenId",
          "type": "uint256"
        },
        {
          "internalType": "bytes",
          "name": "data",
          "type": "bytes"
        }
      ],
      "name": "safeTransferFrom",
      "outputs": [],
      "stateMutability": "nonpayable",
      "type": "function"
    },
    {
      "inputs": [
        {
          "internalType": "address",
          "name": "operator",
          "type": "address"
        },
        {
          "internalType": "bool",
          "name": "approved",
          "type": "bool"
        }
      ],
      "name": "setApprovalForAll",
      "outputs": [],
      "stateMutability": "nonpayable",
      "type": "function"
    },
    {
      "inputs": [
        {
          "internalType": "bytes4",
          "name": "interfaceId",
          "type": "bytes4"
        }
      ],
      "name": "supportsInterface",
      "outputs": [
        {
          "internalType": "bool",
          "name": "",
          "type": "bool"
        }
      ],
      "stateMutability": "view",
      "type": "function"
    },
    {
      "inputs": [],
      "name": "symbol",
      "outputs": [
        {
          "internalType": "string",
          "name": "",
          "type": "string"
        }
      ],
      "stateMutability": "view",
      "type": "function"
    },
    {
      "inputs": [
        {
          "internalType": "uint256",
          "name": "tokenId",
          "type": "uint256"
        }
      ],
      "name": "tokenURI",
      "outputs": [
        {
          "internalType": "string",
          "name": "",
          "type": "string"
        }
      ],
      "stateMutability": "view",
      "type": "function"
    },
    {
      "inputs": [
        {
          "internalType": "address",
          "name": "from",
          "type": "address"
        },
        {
          "internalType": "address",
          "name": "to",
          "type": "address"
        },
        {
          "internalType": "uint256",
          "name": "tokenId",
          "type": "uint256"
        }
      ],
      "name": "transferFrom",
      "outputs": [],
      "stateMutability": "nonpayable",
      "type": "function"
    },
    {
      "inputs": [],
      "name": "updateInfo",
      "outputs": [],
      "stateMutability": "nonpayable",
      "type": "function"
    }
  ],
  "bytecode": "0x60806040523480156200001157600080fd5b50604051620035363803806200353683398181016040528101906200003791906200017b565b6040518060400160405280600d81526020017f426f72726f77596f7572436172000000000000000000000000000000000000008152506040518060400160405280600381526020017f42594300000000000000000000000000000000000000000000000000000000008152508160009081620000b4919062000427565b508060019081620000c6919062000427565b50505080600a60006101000a81548173ffffffffffffffffffffffffffffffffffffffff021916908373ffffffffffffffffffffffffffffffffffffffff160217905550506200050e565b600080fd5b600073ffffffffffffffffffffffffffffffffffffffff82169050919050565b6000620001438262000116565b9050919050565b620001558162000136565b81146200016157600080fd5b50565b60008151905062000175816200014a565b92915050565b60006020828403121562000194576200019362000111565b5b6000620001a48482850162000164565b91505092915050565b600081519050919050565b7f4e487b7100000000000000000000000000000000000000000000000000000000600052604160045260246000fd5b7f4e487b7100000000000000000000000000000000000000000000000000000000600052602260045260246000fd5b600060028204905060018216806200022f57607f821691505b602082108103620002455762000244620001e7565b5b50919050565b60008190508160005260206000209050919050565b60006020601f8301049050919050565b600082821b905092915050565b600060088302620002af7fffffffffffffffffffffffffffffffffffffffffffffffffffffffffffffffff8262000270565b620002bb868362000270565b95508019841693508086168417925050509392505050565b6000819050919050565b6000819050919050565b60006200030862000302620002fc84620002d3565b620002dd565b620002d3565b9050919050565b6000819050919050565b6200032483620002e7565b6200033c62000333826200030f565b8484546200027d565b825550505050565b600090565b6200035362000344565b6200036081848462000319565b505050565b5b8181101562000388576200037c60008262000349565b60018101905062000366565b5050565b601f821115620003d757620003a1816200024b565b620003ac8462000260565b81016020851015620003bc578190505b620003d4620003cb8562000260565b83018262000365565b50505b505050565b600082821c905092915050565b6000620003fc60001984600802620003dc565b1980831691505092915050565b6000620004178383620003e9565b9150826002028217905092915050565b6200043282620001ad565b67ffffffffffffffff8111156200044e576200044d620001b8565b5b6200045a825462000216565b620004678282856200038c565b600060209050601f8311600181146200049f57600084156200048a578287015190505b62000496858262000409565b86555062000506565b601f198416620004af866200024b565b60005b82811015620004d957848901518255600182019150602085019450602081019050620004b2565b86831015620004f95784890151620004f5601f891682620003e9565b8355505b6001600288020188555050505b505050505050565b613018806200051e6000396000f3fe608060405234801561001057600080fd5b50600436106101735760003560e01c80638500d919116100de578063b88d4fde11610097578063e865af0411610071578063e865af0414610484578063e985e9c5146104a0578063f1354acc146104d0578063f7746e36146104da57610173565b8063b88d4fde14610408578063c41a360a14610424578063c87b56dd1461045457610173565b80638500d9191461034657806395d89b4114610376578063a22cb46514610394578063a5adf8ea146103b0578063b66935ed146103ce578063b7c9252c146103fe57610173565b80633802ebf5116101305780633802ebf51461025e57806342842e0e1461028e578063433b8046146102aa5780635bb070a7146102c85780636352211e146102e657806370a082311461031657610173565b806301ffc9a71461017857806306fdde03146101a8578063081812fc146101c6578063095ea7b3146101f65780630a4d04e41461021257806323b872dd14610242575b600080fd5b610192600480360381019061018d9190612205565b61050d565b60405161019f919061224d565b60405180910390f35b6101b06105ef565b6040516101bd91906122f8565b60405180910390f35b6101e060048036038101906101db9190612350565b610681565b6040516101ed91906123be565b60405180910390f35b610210600480360381019061020b9190612405565b61069d565b005b61022c60048036038101906102279190612350565b6106b3565b6040516102399190612454565b60405180910390f35b61025c6004803603810190610257919061246f565b6106d7565b005b61027860048036038101906102739190612350565b6107d9565b6040516102859190612454565b60405180910390f35b6102a860048036038101906102a3919061246f565b6107fd565b005b6102b261081d565b6040516102bf9190612580565b60405180910390f35b6102d0610875565b6040516102dd9190612601565b60405180910390f35b61030060048036038101906102fb9190612350565b61089b565b60405161030d91906123be565b60405180910390f35b610330600480360381019061032b919061261c565b6108ad565b60405161033d9190612454565b60405180910390f35b610360600480360381019061035b9190612350565b610967565b60405161036d91906123be565b60405180910390f35b61037e6109ce565b60405161038b91906122f8565b60405180910390f35b6103ae60048036038101906103a99190612675565b610a60565b005b6103b8610a76565b6040516103c59190612580565b60405180910390f35b6103e860048036038101906103e39190612405565b610b0b565b6040516103f59190612454565b60405180910390f35b610406610b3c565b005b610422600480360381019061041d91906127ea565b610c0e565b005b61043e60048036038101906104399190612350565b610c2b565b60405161044b91906123be565b60405180910390f35b61046e60048036038101906104699190612350565b610c70565b60405161047b91906122f8565b60405180910390f35b61049e6004803603810190610499919061286d565b610cd9565b005b6104ba60048036038101906104b591906128ad565b611059565b6040516104c7919061224d565b60405180910390f35b6104d86110ed565b005b6104f460048036038101906104ef9190612350565b6112db565b60405161050494939291906128ed565b60405180910390f35b60007f80ac58cd000000000000000000000000000000000000000000000000000000007bffffffffffffffffffffffffffffffffffffffffffffffffffffffff1916827bffffffffffffffffffffffffffffffffffffffffffffffffffffffff191614806105d857507f5b5e139f000000000000000000000000000000000000000000000000000000007bffffffffffffffffffffffffffffffffffffffffffffffffffffffff1916827bffffffffffffffffffffffffffffffffffffffffffffffffffffffff1916145b806105e857506105e782611358565b5b9050919050565b6060600080546105fe90612961565b80601f016020809104026020016040519081016040528092919081815260200182805461062a90612961565b80156106775780601f1061064c57610100808354040283529160200191610677565b820191906000526020600020905b81548152906001019060200180831161065a57829003601f168201915b5050505050905090565b600061068c826113c2565b506106968261144a565b9050919050565b6106af82826106aa611487565b61148f565b5050565b600981815481106106c357600080fd5b906000526020600020016000915090505481565b600073ffffffffffffffffffffffffffffffffffffffff168273ffffffffffffffffffffffffffffffffffffffff16036107495760006040517f64a0ae9200000000000000000000000000000000000000000000000000000000815260040161074091906123be565b60405180910390fd5b600061075d8383610758611487565b6114a1565b90508373ffffffffffffffffffffffffffffffffffffffff168173ffffffffffffffffffffffffffffffffffffffff16146107d3578382826040517f64283d7b0000000000000000000000000000000000000000000000000000000081526004016107ca93929190612992565b60405180910390fd5b50505050565b600881815481106107e957600080fd5b906000526020600020016000915090505481565b61081883838360405180602001604052806000815250610c0e565b505050565b6060600880548060200260200160405190810160405280929190818152602001828054801561086b57602002820191906000526020600020905b815481526020019060010190808311610857575b5050505050905090565b600a60009054906101000a900473ffffffffffffffffffffffffffffffffffffffff1681565b60006108a6826113c2565b9050919050565b60008073ffffffffffffffffffffffffffffffffffffffff168273ffffffffffffffffffffffffffffffffffffffff16036109205760006040517f89c62b6400000000000000000000000000000000000000000000000000000000815260040161091791906123be565b60405180910390fd5b600360008373ffffffffffffffffffffffffffffffffffffffff1673ffffffffffffffffffffffffffffffffffffffff168152602001908152602001600020549050919050565b6000426006600084815260200190815260200160002060020154106109c4576006600083815260200190815260200160002060010160009054906101000a900473ffffffffffffffffffffffffffffffffffffffff1690506109c9565b600090505b919050565b6060600180546109dd90612961565b80601f0160208091040260200160405190810160405280929190818152602001828054610a0990612961565b8015610a565780601f10610a2b57610100808354040283529160200191610a56565b820191906000526020600020905b815481529060010190602001808311610a3957829003601f168201915b5050505050905090565b610a72610a6b611487565b83836116bb565b5050565b6060600760003373ffffffffffffffffffffffffffffffffffffffff1673ffffffffffffffffffffffffffffffffffffffff168152602001908152602001600020805480602002602001604051908101604052809291908181526020018280548015610b0157602002820191906000526020600020905b815481526020019060010190808311610aed575b5050505050905090565b60076020528160005260406000208181548110610b2757600080fd5b90600052602060002001600091509150505481565b60005b600980549050811015610c0b57426006600060098481548110610b6557610b646129c9565b5b90600052602060002001548152602001908152602001600020600201541015610bf857600860098281548110610b9e57610b9d6129c9565b5b90600052602060002001549080600181540180825580915050600190039060005260206000200160009091909190915055610bf76009808381548110610be757610be66129c9565b5b906000526020600020015461182a565b5b8080610c0390612a27565b915050610b3f565b50565b610c198484846106d7565b610c25848484846118f0565b50505050565b6000806006600084815260200190815260200160002090508060000160009054906101000a900473ffffffffffffffffffffffffffffffffffffffff16915050919050565b6060610c7b826113c2565b506000610c86611aa7565b90506000815111610ca65760405180602001604052806000815250610cd1565b80610cb084611abe565b604051602001610cc1929190612aab565b6040516020818303038152906040525b915050919050565b3373ffffffffffffffffffffffffffffffffffffffff16610cf983610c2b565b73ffffffffffffffffffffffffffffffffffffffff1603610d4f576040517f08c379a0000000000000000000000000000000000000000000000000000000008152600401610d4690612b1b565b60405180910390fd5b60006006600084815260200190815260200160002090508060030160009054906101000a900460ff16610db7576040517f08c379a0000000000000000000000000000000000000000000000000000000008152600401610dae90612bad565b60405180910390fd5b6000610e1083610dc79190612bfc565b905080600a60009054906101000a900473ffffffffffffffffffffffffffffffffffffffff1673ffffffffffffffffffffffffffffffffffffffff166370a08231336040518263ffffffff1660e01b8152600401610e2591906123be565b602060405180830381865afa158015610e42573d6000803e3d6000fd5b505050506040513d601f19601f82011682018060405250810190610e669190612c42565b1015610ea7576040517f08c379a0000000000000000000000000000000000000000000000000000000008152600401610e9e90612cbb565b60405180910390fd5b600a60009054906101000a900473ffffffffffffffffffffffffffffffffffffffff1673ffffffffffffffffffffffffffffffffffffffff166323b872dd338460000160009054906101000a900473ffffffffffffffffffffffffffffffffffffffff16846040518463ffffffff1660e01b8152600401610f2a93929190612cdb565b6020604051808303816000875af1158015610f49573d6000803e3d6000fd5b505050506040513d601f19601f82011682018060405250810190610f6d9190612d27565b5060008260030160006101000a81548160ff021916908315150217905550338260010160006101000a81548173ffffffffffffffffffffffffffffffffffffffff021916908373ffffffffffffffffffffffffffffffffffffffff1602179055508242610fda9190612d54565b8260020181905550610fed60088561182a565b60098490806001815401808255809150506001900390600052602060002001600090919091909150557f8879d78706834dc00d82232992f71250fab6a1f70b08260968253950083d88cd8433428660405161104b9493929190612d88565b60405180910390a150505050565b6000600560008473ffffffffffffffffffffffffffffffffffffffff1673ffffffffffffffffffffffffffffffffffffffff16815260200190815260200160002060008373ffffffffffffffffffffffffffffffffffffffff1673ffffffffffffffffffffffffffffffffffffffff16815260200190815260200160002060009054906101000a900460ff16905092915050565b600042443360405160200161110493929190612e36565b6040516020818303038152906040528051906020012060001c90506111293382611b8c565b60405180608001604052803373ffffffffffffffffffffffffffffffffffffffff168152602001600073ffffffffffffffffffffffffffffffffffffffff16815260200160008152602001600115158152506006600083815260200190815260200160002060008201518160000160006101000a81548173ffffffffffffffffffffffffffffffffffffffff021916908373ffffffffffffffffffffffffffffffffffffffff16021790555060208201518160010160006101000a81548173ffffffffffffffffffffffffffffffffffffffff021916908373ffffffffffffffffffffffffffffffffffffffff1602179055506040820151816002015560608201518160030160006101000a81548160ff021916908315150217905550905050600760003373ffffffffffffffffffffffffffffffffffffffff1673ffffffffffffffffffffffffffffffffffffffff168152602001908152602001600020819080600181540180825580915050600190039060005260206000200160009091909190915055600881908060018154018082558091505060019003906000526020600020016000909190919091505550565b60066020528060005260406000206000915090508060000160009054906101000a900473ffffffffffffffffffffffffffffffffffffffff16908060010160009054906101000a900473ffffffffffffffffffffffffffffffffffffffff16908060020154908060030160009054906101000a900460ff16905084565b60007f01ffc9a7000000000000000000000000000000000000000000000000000000007bffffffffffffffffffffffffffffffffffffffffffffffffffffffff1916827bffffffffffffffffffffffffffffffffffffffffffffffffffffffff1916149050919050565b6000806113ce83611baa565b9050600073ffffffffffffffffffffffffffffffffffffffff168173ffffffffffffffffffffffffffffffffffffffff160361144157826040517f7e2732890000000000000000000000000000000000000000000000000000000081526004016114389190612454565b60405180910390fd5b80915050919050565b60006004600083815260200190815260200160002060009054906101000a900473ffffffffffffffffffffffffffffffffffffffff169050919050565b600033905090565b61149c8383836001611be7565b505050565b6000806114ad84611baa565b9050600073ffffffffffffffffffffffffffffffffffffffff168373ffffffffffffffffffffffffffffffffffffffff16146114ef576114ee818486611dac565b5b600073ffffffffffffffffffffffffffffffffffffffff168173ffffffffffffffffffffffffffffffffffffffff161461158057611531600085600080611be7565b6001600360008373ffffffffffffffffffffffffffffffffffffffff1673ffffffffffffffffffffffffffffffffffffffff168152602001908152602001600020600082825403925050819055505b600073ffffffffffffffffffffffffffffffffffffffff168573ffffffffffffffffffffffffffffffffffffffff1614611603576001600360008773ffffffffffffffffffffffffffffffffffffffff1673ffffffffffffffffffffffffffffffffffffffff168152602001908152602001600020600082825401925050819055505b846002600086815260200190815260200160002060006101000a81548173ffffffffffffffffffffffffffffffffffffffff021916908373ffffffffffffffffffffffffffffffffffffffff160217905550838573ffffffffffffffffffffffffffffffffffffffff168273ffffffffffffffffffffffffffffffffffffffff167fddf252ad1be2c89b69c2b068fc378daa952ba7f163c4a11628f55a4df523b3ef60405160405180910390a4809150509392505050565b600073ffffffffffffffffffffffffffffffffffffffff168273ffffffffffffffffffffffffffffffffffffffff160361172c57816040517f5b08ba1800000000000000000000000000000000000000000000000000000000815260040161172391906123be565b60405180910390fd5b80600560008573ffffffffffffffffffffffffffffffffffffffff1673ffffffffffffffffffffffffffffffffffffffff16815260200190815260200160002060008473ffffffffffffffffffffffffffffffffffffffff1673ffffffffffffffffffffffffffffffffffffffff16815260200190815260200160002060006101000a81548160ff0219169083151502179055508173ffffffffffffffffffffffffffffffffffffffff168373ffffffffffffffffffffffffffffffffffffffff167f17307eab39ab6107e8899845ad3d59bd9653f200f220920489ca2b5937696c318360405161181d919061224d565b60405180910390a3505050565b60005b82805490508110156118eb578183828154811061184d5761184c6129c9565b5b9060005260206000200154036118d857826001848054905061186f9190612e73565b815481106118805761187f6129c9565b5b906000526020600020015483828154811061189e5761189d6129c9565b5b9060005260206000200181905550828054806118bd576118bc612ea7565b5b600190038181906000526020600020016000905590556118eb565b80806118e390612a27565b91505061182d565b505050565b60008373ffffffffffffffffffffffffffffffffffffffff163b1115611aa1578273ffffffffffffffffffffffffffffffffffffffff1663150b7a02611934611487565b8685856040518563ffffffff1660e01b81526004016119569493929190612f2b565b6020604051808303816000875af192505050801561199257506040513d601f19601f8201168201806040525081019061198f9190612f8c565b60015b611a16573d80600081146119c2576040519150601f19603f3d011682016040523d82523d6000602084013e6119c7565b606091505b506000815103611a0e57836040517f64a0ae92000000000000000000000000000000000000000000000000000000008152600401611a0591906123be565b60405180910390fd5b805181602001fd5b63150b7a0260e01b7bffffffffffffffffffffffffffffffffffffffffffffffffffffffff1916817bffffffffffffffffffffffffffffffffffffffffffffffffffffffff191614611a9f57836040517f64a0ae92000000000000000000000000000000000000000000000000000000008152600401611a9691906123be565b60405180910390fd5b505b50505050565b606060405180602001604052806000815250905090565b606060006001611acd84611e70565b01905060008167ffffffffffffffff811115611aec57611aeb6126bf565b5b6040519080825280601f01601f191660200182016040528015611b1e5781602001600182028036833780820191505090505b509050600082602001820190505b600115611b81578080600190039150507f3031323334353637383961626364656600000000000000000000000000000000600a86061a8153600a8581611b7557611b74612bcd565b5b04945060008503611b2c575b819350505050919050565b611ba6828260405180602001604052806000815250611fc3565b5050565b60006002600083815260200190815260200160002060009054906101000a900473ffffffffffffffffffffffffffffffffffffffff169050919050565b8080611c205750600073ffffffffffffffffffffffffffffffffffffffff168273ffffffffffffffffffffffffffffffffffffffff1614155b15611d54576000611c30846113c2565b9050600073ffffffffffffffffffffffffffffffffffffffff168373ffffffffffffffffffffffffffffffffffffffff1614158015611c9b57508273ffffffffffffffffffffffffffffffffffffffff168173ffffffffffffffffffffffffffffffffffffffff1614155b8015611cae5750611cac8184611059565b155b15611cf057826040517fa9fbf51f000000000000000000000000000000000000000000000000000000008152600401611ce791906123be565b60405180910390fd5b8115611d5257838573ffffffffffffffffffffffffffffffffffffffff168273ffffffffffffffffffffffffffffffffffffffff167f8c5be1e5ebec7d5bd14f71427d1e84f3dd0314c0f7b2291e5b200ac8c7c3b92560405160405180910390a45b505b836004600085815260200190815260200160002060006101000a81548173ffffffffffffffffffffffffffffffffffffffff021916908373ffffffffffffffffffffffffffffffffffffffff16021790555050505050565b611db7838383611fdf565b611e6b57600073ffffffffffffffffffffffffffffffffffffffff168373ffffffffffffffffffffffffffffffffffffffff1603611e2c57806040517f7e273289000000000000000000000000000000000000000000000000000000008152600401611e239190612454565b60405180910390fd5b81816040517f177e802f000000000000000000000000000000000000000000000000000000008152600401611e62929190612fb9565b60405180910390fd5b505050565b600080600090507a184f03e93ff9f4daa797ed6e38ed64bf6a1f0100000000000000008310611ece577a184f03e93ff9f4daa797ed6e38ed64bf6a1f0100000000000000008381611ec457611ec3612bcd565b5b0492506040810190505b6d04ee2d6d415b85acef81000000008310611f0b576d04ee2d6d415b85acef81000000008381611f0157611f00612bcd565b5b0492506020810190505b662386f26fc100008310611f3a57662386f26fc100008381611f3057611f2f612bcd565b5b0492506010810190505b6305f5e1008310611f63576305f5e1008381611f5957611f58612bcd565b5b0492506008810190505b6127108310611f88576127108381611f7e57611f7d612bcd565b5b0492506004810190505b60648310611fab5760648381611fa157611fa0612bcd565b5b0492506002810190505b600a8310611fba576001810190505b80915050919050565b611fcd83836120a0565b611fda60008484846118f0565b505050565b60008073ffffffffffffffffffffffffffffffffffffffff168373ffffffffffffffffffffffffffffffffffffffff161415801561209757508273ffffffffffffffffffffffffffffffffffffffff168473ffffffffffffffffffffffffffffffffffffffff16148061205857506120578484611059565b5b8061209657508273ffffffffffffffffffffffffffffffffffffffff1661207e8361144a565b73ffffffffffffffffffffffffffffffffffffffff16145b5b90509392505050565b600073ffffffffffffffffffffffffffffffffffffffff168273ffffffffffffffffffffffffffffffffffffffff16036121125760006040517f64a0ae9200000000000000000000000000000000000000000000000000000000815260040161210991906123be565b60405180910390fd5b6000612120838360006114a1565b9050600073ffffffffffffffffffffffffffffffffffffffff168173ffffffffffffffffffffffffffffffffffffffff16146121945760006040517f73c6ac6e00000000000000000000000000000000000000000000000000000000815260040161218b91906123be565b60405180910390fd5b505050565b6000604051905090565b600080fd5b600080fd5b60007fffffffff0000000000000000000000000000000000000000000000000000000082169050919050565b6121e2816121ad565b81146121ed57600080fd5b50565b6000813590506121ff816121d9565b92915050565b60006020828403121561221b5761221a6121a3565b5b6000612229848285016121f0565b91505092915050565b60008115159050919050565b61224781612232565b82525050565b6000602082019050612262600083018461223e565b92915050565b600081519050919050565b600082825260208201905092915050565b60005b838110156122a2578082015181840152602081019050612287565b60008484015250505050565b6000601f19601f8301169050919050565b60006122ca82612268565b6122d48185612273565b93506122e4818560208601612284565b6122ed816122ae565b840191505092915050565b6000602082019050818103600083015261231281846122bf565b905092915050565b6000819050919050565b61232d8161231a565b811461233857600080fd5b50565b60008135905061234a81612324565b92915050565b600060208284031215612366576123656121a3565b5b60006123748482850161233b565b91505092915050565b600073ffffffffffffffffffffffffffffffffffffffff82169050919050565b60006123a88261237d565b9050919050565b6123b88161239d565b82525050565b60006020820190506123d360008301846123af565b92915050565b6123e28161239d565b81146123ed57600080fd5b50565b6000813590506123ff816123d9565b92915050565b6000806040838503121561241c5761241b6121a3565b5b600061242a858286016123f0565b925050602061243b8582860161233b565b9150509250929050565b61244e8161231a565b82525050565b60006020820190506124696000830184612445565b92915050565b600080600060608486031215612488576124876121a3565b5b6000612496868287016123f0565b93505060206124a7868287016123f0565b92505060406124b88682870161233b565b9150509250925092565b600081519050919050565b600082825260208201905092915050565b6000819050602082019050919050565b6124f78161231a565b82525050565b600061250983836124ee565b60208301905092915050565b6000602082019050919050565b600061252d826124c2565b61253781856124cd565b9350612542836124de565b8060005b8381101561257357815161255a88826124fd565b975061256583612515565b925050600181019050612546565b5085935050505092915050565b6000602082019050818103600083015261259a8184612522565b905092915050565b6000819050919050565b60006125c76125c26125bd8461237d565b6125a2565b61237d565b9050919050565b60006125d9826125ac565b9050919050565b60006125eb826125ce565b9050919050565b6125fb816125e0565b82525050565b600060208201905061261660008301846125f2565b92915050565b600060208284031215612632576126316121a3565b5b6000612640848285016123f0565b91505092915050565b61265281612232565b811461265d57600080fd5b50565b60008135905061266f81612649565b92915050565b6000806040838503121561268c5761268b6121a3565b5b600061269a858286016123f0565b92505060206126ab85828601612660565b9150509250929050565b600080fd5b600080fd5b7f4e487b7100000000000000000000000000000000000000000000000000000000600052604160045260246000fd5b6126f7826122ae565b810181811067ffffffffffffffff82111715612716576127156126bf565b5b80604052505050565b6000612729612199565b905061273582826126ee565b919050565b600067ffffffffffffffff821115612755576127546126bf565b5b61275e826122ae565b9050602081019050919050565b82818337600083830152505050565b600061278d6127888461273a565b61271f565b9050828152602081018484840111156127a9576127a86126ba565b5b6127b484828561276b565b509392505050565b600082601f8301126127d1576127d06126b5565b5b81356127e184826020860161277a565b91505092915050565b60008060008060808587031215612804576128036121a3565b5b6000612812878288016123f0565b9450506020612823878288016123f0565b93505060406128348782880161233b565b925050606085013567ffffffffffffffff811115612855576128546121a8565b5b612861878288016127bc565b91505092959194509250565b60008060408385031215612884576128836121a3565b5b60006128928582860161233b565b92505060206128a38582860161233b565b9150509250929050565b600080604083850312156128c4576128c36121a3565b5b60006128d2858286016123f0565b92505060206128e3858286016123f0565b9150509250929050565b600060808201905061290260008301876123af565b61290f60208301866123af565b61291c6040830185612445565b612929606083018461223e565b95945050505050565b7f4e487b7100000000000000000000000000000000000000000000000000000000600052602260045260246000fd5b6000600282049050600182168061297957607f821691505b60208210810361298c5761298b612932565b5b50919050565b60006060820190506129a760008301866123af565b6129b46020830185612445565b6129c160408301846123af565b949350505050565b7f4e487b7100000000000000000000000000000000000000000000000000000000600052603260045260246000fd5b7f4e487b7100000000000000000000000000000000000000000000000000000000600052601160045260246000fd5b6000612a328261231a565b91507fffffffffffffffffffffffffffffffffffffffffffffffffffffffffffffffff8203612a6457612a636129f8565b5b600182019050919050565b600081905092915050565b6000612a8582612268565b612a8f8185612a6f565b9350612a9f818560208601612284565b80840191505092915050565b6000612ab78285612a7a565b9150612ac38284612a7a565b91508190509392505050565b7f596f752061726520746865206f776e6572206f66207468697320636172000000600082015250565b6000612b05601d83612273565b9150612b1082612acf565b602082019050919050565b60006020820190508181036000830152612b3481612af8565b9050919050565b7f436172206973206e6f7420617661696c61626c6520666f7220626f72726f776960008201527f6e67000000000000000000000000000000000000000000000000000000000000602082015250565b6000612b97602283612273565b9150612ba282612b3b565b604082019050919050565b60006020820190508181036000830152612bc681612b8a565b9050919050565b7f4e487b7100000000000000000000000000000000000000000000000000000000600052601260045260246000fd5b6000612c078261231a565b9150612c128361231a565b925082612c2257612c21612bcd565b5b828204905092915050565b600081519050612c3c81612324565b92915050565b600060208284031215612c5857612c576121a3565b5b6000612c6684828501612c2d565b91505092915050565b7f496e73756666696369656e742062616c616e6365000000000000000000000000600082015250565b6000612ca5601483612273565b9150612cb082612c6f565b602082019050919050565b60006020820190508181036000830152612cd481612c98565b9050919050565b6000606082019050612cf060008301866123af565b612cfd60208301856123af565b612d0a6040830184612445565b949350505050565b600081519050612d2181612649565b92915050565b600060208284031215612d3d57612d3c6121a3565b5b6000612d4b84828501612d12565b91505092915050565b6000612d5f8261231a565b9150612d6a8361231a565b9250828201905080821115612d8257612d816129f8565b5b92915050565b6000608082019050612d9d6000830187612445565b612daa60208301866123af565b612db76040830185612445565b612dc46060830184612445565b95945050505050565b6000819050919050565b612de8612de38261231a565b612dcd565b82525050565b60008160601b9050919050565b6000612e0682612dee565b9050919050565b6000612e1882612dfb565b9050919050565b612e30612e2b8261239d565b612e0d565b82525050565b6000612e428286612dd7565b602082019150612e528285612dd7565b602082019150612e628284612e1f565b601482019150819050949350505050565b6000612e7e8261231a565b9150612e898361231a565b9250828203905081811115612ea157612ea06129f8565b5b92915050565b7f4e487b7100000000000000000000000000000000000000000000000000000000600052603160045260246000fd5b600081519050919050565b600082825260208201905092915050565b6000612efd82612ed6565b612f078185612ee1565b9350612f17818560208601612284565b612f20816122ae565b840191505092915050565b6000608082019050612f4060008301876123af565b612f4d60208301866123af565b612f5a6040830185612445565b8181036060830152612f6c8184612ef2565b905095945050505050565b600081519050612f86816121d9565b92915050565b600060208284031215612fa257612fa16121a3565b5b6000612fb084828501612f77565b91505092915050565b6000604082019050612fce60008301856123af565b612fdb6020830184612445565b939250505056fea26469706673582212203ac79c0bf0255075bf5aa1668b863aa6e055ba04807822dbb512afdd293e392a64736f6c63430008140033",
  "linkReferences": {},
  "deployedLinkReferences": {}
}