{
  "_format": "hh-sol-artifact-1",
  "contractName": "BorrowYourCar",
  "sourceName": "contracts/BorrowYourCar.sol",
  "abi": [
    {
      "inputs": [
        {
          "internalType": "address",
          "name": "tokenAddress",
          "type": "address"
        }
      ],
      "stateMutability": "nonpayable",
      "type": "constructor"
    },
    {
      "inputs": [
        {
          "internalType": "address",
          "name": "sender",
          "type": "address"
        },
        {
          "internalType": "uint256",
          "name": "tokenId",
          "type": "uint256"
        },
        {
          "internalType": "address",
          "name": "owner",
          "type": "address"
        }
      ],
      "name": "ERC721IncorrectOwner",
      "type": "error"
    },
    {
      "inputs": [
        {
          "internalType": "address",
          "name": "operator",
          "type": "address"
        },
        {
          "internalType": "uint256",
          "name": "tokenId",
          "type": "uint256"
        }
      ],
      "name": "ERC721InsufficientApproval",
      "type": "error"
    },
    {
      "inputs": [
        {
          "internalType": "address",
          "name": "approver",
          "type": "address"
        }
      ],
      "name": "ERC721InvalidApprover",
      "type": "error"
    },
    {
      "inputs": [
        {
          "internalType": "address",
          "name": "operator",
          "type": "address"
        }
      ],
      "name": "ERC721InvalidOperator",
      "type": "error"
    },
    {
      "inputs": [
        {
          "internalType": "address",
          "name": "owner",
          "type": "address"
        }
      ],
      "name": "ERC721InvalidOwner",
      "type": "error"
    },
    {
      "inputs": [
        {
          "internalType": "address",
          "name": "receiver",
          "type": "address"
        }
      ],
      "name": "ERC721InvalidReceiver",
      "type": "error"
    },
    {
      "inputs": [
        {
          "internalType": "address",
          "name": "sender",
          "type": "address"
        }
      ],
      "name": "ERC721InvalidSender",
      "type": "error"
    },
    {
      "inputs": [
        {
          "internalType": "uint256",
          "name": "tokenId",
          "type": "uint256"
        }
      ],
      "name": "ERC721NonexistentToken",
      "type": "error"
    },
    {
      "anonymous": false,
      "inputs": [
        {
          "indexed": true,
          "internalType": "address",
          "name": "owner",
          "type": "address"
        },
        {
          "indexed": true,
          "internalType": "address",
          "name": "approved",
          "type": "address"
        },
        {
          "indexed": true,
          "internalType": "uint256",
          "name": "tokenId",
          "type": "uint256"
        }
      ],
      "name": "Approval",
      "type": "event"
    },
    {
      "anonymous": false,
      "inputs": [
        {
          "indexed": true,
          "internalType": "address",
          "name": "owner",
          "type": "address"
        },
        {
          "indexed": true,
          "internalType": "address",
          "name": "operator",
          "type": "address"
        },
        {
          "indexed": false,
          "internalType": "bool",
          "name": "approved",
          "type": "bool"
        }
      ],
      "name": "ApprovalForAll",
      "type": "event"
    },
    {
      "anonymous": false,
      "inputs": [
        {
          "indexed": false,
          "internalType": "uint256",
          "name": "carId",
          "type": "uint256"
        },
        {
          "indexed": false,
          "internalType": "address",
          "name": "borrower",
          "type": "address"
        },
        {
          "indexed": false,
          "internalType": "uint256",
          "name": "startTime",
          "type": "uint256"
        },
        {
          "indexed": false,
          "internalType": "uint256",
          "name": "duration",
          "type": "uint256"
        }
      ],
      "name": "CarBorrowed",
      "type": "event"
    },
    {
      "anonymous": false,
      "inputs": [
        {
          "indexed": true,
          "internalType": "address",
          "name": "from",
          "type": "address"
        },
        {
          "indexed": true,
          "internalType": "address",
          "name": "to",
          "type": "address"
        },
        {
          "indexed": true,
          "internalType": "uint256",
          "name": "tokenId",
          "type": "uint256"
        }
      ],
      "name": "Transfer",
      "type": "event"
    },
    {
      "inputs": [],
      "name": "addCar",
      "outputs": [],
      "stateMutability": "nonpayable",
      "type": "function"
    },
    {
      "inputs": [
        {
          "internalType": "address",
          "name": "to",
          "type": "address"
        },
        {
          "internalType": "uint256",
          "name": "tokenId",
          "type": "uint256"
        }
      ],
      "name": "approve",
      "outputs": [],
      "stateMutability": "nonpayable",
      "type": "function"
    },
    {
      "inputs": [
        {
          "internalType": "uint256",
          "name": "",
          "type": "uint256"
        }
      ],
      "name": "availableCars",
      "outputs": [
        {
          "internalType": "uint256",
          "name": "",
          "type": "uint256"
        }
      ],
      "stateMutability": "view",
      "type": "function"
    },
    {
      "inputs": [
        {
          "internalType": "address",
          "name": "owner",
          "type": "address"
        }
      ],
      "name": "balanceOf",
      "outputs": [
        {
          "internalType": "uint256",
          "name": "",
          "type": "uint256"
        }
      ],
      "stateMutability": "view",
      "type": "function"
    },
    {
      "inputs": [
        {
          "internalType": "uint256",
          "name": "carId",
          "type": "uint256"
        },
        {
          "internalType": "uint256",
          "name": "duration",
          "type": "uint256"
        }
      ],
      "name": "borrowCar",
      "outputs": [],
      "stateMutability": "nonpayable",
      "type": "function"
    },
    {
      "inputs": [
        {
          "internalType": "uint256",
          "name": "",
          "type": "uint256"
        }
      ],
      "name": "borrowedCars",
      "outputs": [
        {
          "internalType": "uint256",
          "name": "",
          "type": "uint256"
        }
      ],
      "stateMutability": "view",
      "type": "function"
    },
    {
      "inputs": [
        {
          "internalType": "uint256",
          "name": "",
          "type": "uint256"
        }
      ],
      "name": "cars",
      "outputs": [
        {
          "internalType": "address",
          "name": "owner",
          "type": "address"
        },
        {
          "internalType": "address",
          "name": "borrower",
          "type": "address"
        },
        {
          "internalType": "uint256",
          "name": "borrowUntil",
          "type": "uint256"
        },
        {
          "internalType": "bool",
          "name": "isAvailable",
          "type": "bool"
        }
      ],
      "stateMutability": "view",
      "type": "function"
    },
    {
      "inputs": [
        {
          "internalType": "uint256",
          "name": "tokenId",
          "type": "uint256"
        }
      ],
      "name": "getApproved",
      "outputs": [
        {
          "internalType": "address",
          "name": "",
          "type": "address"
        }
      ],
      "stateMutability": "view",
      "type": "function"
    },
    {
      "inputs": [],
      "name": "getAvailableCars",
      "outputs": [
        {
          "internalType": "uint256[]",
          "name": "",
          "type": "uint256[]"
        }
      ],
      "stateMutability": "view",
      "type": "function"
    },
    {
      "inputs": [
        {
          "internalType": "uint256",
          "name": "carId",
          "type": "uint256"
        }
      ],
      "name": "getBorrower",
      "outputs": [
        {
          "internalType": "address",
          "name": "",
          "type": "address"
        }
      ],
      "stateMutability": "view",
      "type": "function"
    },
    {
      "inputs": [],
      "name": "getOwnedCars",
      "outputs": [
        {
          "internalType": "uint256[]",
          "name": "",
          "type": "uint256[]"
        }
      ],
      "stateMutability": "view",
      "type": "function"
    },
    {
      "inputs": [
        {
          "internalType": "uint256",
          "name": "carId",
          "type": "uint256"
        }
      ],
      "name": "getOwner",
      "outputs": [
        {
          "internalType": "address",
          "name": "",
          "type": "address"
        }
      ],
      "stateMutability": "view",
      "type": "function"
    },
    {
      "inputs": [
        {
          "internalType": "address",
          "name": "owner",
          "type": "address"
        },
        {
          "internalType": "address",
          "name": "operator",
          "type": "address"
        }
      ],
      "name": "isApprovedForAll",
      "outputs": [
        {
          "internalType": "bool",
          "name": "",
          "type": "bool"
        }
      ],
      "stateMutability": "view",
      "type": "function"
    },
    {
      "inputs": [],
      "name": "name",
      "outputs": [
        {
          "internalType": "string",
          "name": "",
          "type": "string"
        }
      ],
      "stateMutability": "view",
      "type": "function"
    },
    {
      "inputs": [
        {
          "internalType": "address",
          "name": "",
          "type": "address"
        },
        {
          "internalType": "uint256",
          "name": "",
          "type": "uint256"
        }
      ],
      "name": "ownedCars",
      "outputs": [
        {
          "internalType": "uint256",
          "name": "",
          "type": "uint256"
        }
      ],
      "stateMutability": "view",
      "type": "function"
    },
    {
      "inputs": [
        {
          "internalType": "uint256",
          "name": "tokenId",
          "type": "uint256"
        }
      ],
      "name": "ownerOf",
      "outputs": [
        {
          "internalType": "address",
          "name": "",
          "type": "address"
        }
      ],
      "stateMutability": "view",
      "type": "function"
    },
    {
      "inputs": [],
      "name": "qiushiToken",
      "outputs": [
        {
          "internalType": "contract QiushiToken",
          "name": "",
          "type": "address"
        }
      ],
      "stateMutability": "view",
      "type": "function"
    },
    {
      "inputs": [
        {
          "internalType": "address",
          "name": "from",
          "type": "address"
        },
        {
          "internalType": "address",
          "name": "to",
          "type": "address"
        },
        {
          "internalType": "uint256",
          "name": "tokenId",
          "type": "uint256"
        }
      ],
      "name": "safeTransferFrom",
      "outputs": [],
      "stateMutability": "nonpayable",
      "type": "function"
    },
    {
      "inputs": [
        {
          "internalType": "address",
          "name": "from",
          "type": "address"
        },
        {
          "internalType": "address",
          "name": "to",
          "type": "address"
        },
        {
          "internalType": "uint256",
          "name": "tokenId",
          "type": "uint256"
        },
        {
          "internalType": "bytes",
          "name": "data",
          "type": "bytes"
        }
      ],
      "name": "safeTransferFrom",
      "outputs": [],
      "stateMutability": "nonpayable",
      "type": "function"
    },
    {
      "inputs": [
        {
          "internalType": "address",
          "name": "operator",
          "type": "address"
        },
        {
          "internalType": "bool",
          "name": "approved",
          "type": "bool"
        }
      ],
      "name": "setApprovalForAll",
      "outputs": [],
      "stateMutability": "nonpayable",
      "type": "function"
    },
    {
      "inputs": [
        {
          "internalType": "bytes4",
          "name": "interfaceId",
          "type": "bytes4"
        }
      ],
      "name": "supportsInterface",
      "outputs": [
        {
          "internalType": "bool",
          "name": "",
          "type": "bool"
        }
      ],
      "stateMutability": "view",
      "type": "function"
    },
    {
      "inputs": [],
      "name": "symbol",
      "outputs": [
        {
          "internalType": "string",
          "name": "",
          "type": "string"
        }
      ],
      "stateMutability": "view",
      "type": "function"
    },
    {
      "inputs": [
        {
          "internalType": "uint256",
          "name": "tokenId",
          "type": "uint256"
        }
      ],
      "name": "tokenURI",
      "outputs": [
        {
          "internalType": "string",
          "name": "",
          "type": "string"
        }
      ],
      "stateMutability": "view",
      "type": "function"
    },
    {
      "inputs": [
        {
          "internalType": "address",
          "name": "from",
          "type": "address"
        },
        {
          "internalType": "address",
          "name": "to",
          "type": "address"
        },
        {
          "internalType": "uint256",
          "name": "tokenId",
          "type": "uint256"
        }
      ],
      "name": "transferFrom",
      "outputs": [],
      "stateMutability": "nonpayable",
      "type": "function"
    },
    {
      "inputs": [],
      "name": "updateInfo",
      "outputs": [],
      "stateMutability": "nonpayable",
      "type": "function"
    }
  ],
  "bytecode": "0x60806040523480156200001157600080fd5b50604051620035833803806200358383398181016040528101906200003791906200017b565b6040518060400160405280600d81526020017f426f72726f77596f7572436172000000000000000000000000000000000000008152506040518060400160405280600381526020017f42594300000000000000000000000000000000000000000000000000000000008152508160009081620000b4919062000427565b508060019081620000c6919062000427565b50505080600a60006101000a81548173ffffffffffffffffffffffffffffffffffffffff021916908373ffffffffffffffffffffffffffffffffffffffff160217905550506200050e565b600080fd5b600073ffffffffffffffffffffffffffffffffffffffff82169050919050565b6000620001438262000116565b9050919050565b620001558162000136565b81146200016157600080fd5b50565b60008151905062000175816200014a565b92915050565b60006020828403121562000194576200019362000111565b5b6000620001a48482850162000164565b91505092915050565b600081519050919050565b7f4e487b7100000000000000000000000000000000000000000000000000000000600052604160045260246000fd5b7f4e487b7100000000000000000000000000000000000000000000000000000000600052602260045260246000fd5b600060028204905060018216806200022f57607f821691505b602082108103620002455762000244620001e7565b5b50919050565b60008190508160005260206000209050919050565b60006020601f8301049050919050565b600082821b905092915050565b600060088302620002af7fffffffffffffffffffffffffffffffffffffffffffffffffffffffffffffffff8262000270565b620002bb868362000270565b95508019841693508086168417925050509392505050565b6000819050919050565b6000819050919050565b60006200030862000302620002fc84620002d3565b620002dd565b620002d3565b9050919050565b6000819050919050565b6200032483620002e7565b6200033c62000333826200030f565b8484546200027d565b825550505050565b600090565b6200035362000344565b6200036081848462000319565b505050565b5b8181101562000388576200037c60008262000349565b60018101905062000366565b5050565b601f821115620003d757620003a1816200024b565b620003ac8462000260565b81016020851015620003bc578190505b620003d4620003cb8562000260565b83018262000365565b50505b505050565b600082821c905092915050565b6000620003fc60001984600802620003dc565b1980831691505092915050565b6000620004178383620003e9565b9150826002028217905092915050565b6200043282620001ad565b67ffffffffffffffff8111156200044e576200044d620001b8565b5b6200045a825462000216565b620004678282856200038c565b600060209050601f8311600181146200049f57600084156200048a578287015190505b62000496858262000409565b86555062000506565b601f198416620004af866200024b565b60005b82811015620004d957848901518255600182019150602085019450602081019050620004b2565b86831015620004f95784890151620004f5601f891682620003e9565b8355505b6001600288020188555050505b505050505050565b613065806200051e6000396000f3fe608060405234801561001057600080fd5b50600436106101735760003560e01c80638500d919116100de578063b88d4fde11610097578063e865af0411610071578063e865af0414610484578063e985e9c5146104a0578063f1354acc146104d0578063f7746e36146104da57610173565b8063b88d4fde14610408578063c41a360a14610424578063c87b56dd1461045457610173565b80638500d9191461034657806395d89b4114610376578063a22cb46514610394578063a5adf8ea146103b0578063b66935ed146103ce578063b7c9252c146103fe57610173565b80633802ebf5116101305780633802ebf51461025e57806342842e0e1461028e578063433b8046146102aa5780635bb070a7146102c85780636352211e146102e657806370a082311461031657610173565b806301ffc9a71461017857806306fdde03146101a8578063081812fc146101c6578063095ea7b3146101f65780630a4d04e41461021257806323b872dd14610242575b600080fd5b610192600480360381019061018d9190612252565b61050d565b60405161019f919061229a565b60405180910390f35b6101b06105ef565b6040516101bd9190612345565b60405180910390f35b6101e060048036038101906101db919061239d565b610681565b6040516101ed919061240b565b60405180910390f35b610210600480360381019061020b9190612452565b61069d565b005b61022c6004803603810190610227919061239d565b6106b3565b60405161023991906124a1565b60405180910390f35b61025c600480360381019061025791906124bc565b6106d7565b005b6102786004803603810190610273919061239d565b6107d9565b60405161028591906124a1565b60405180910390f35b6102a860048036038101906102a391906124bc565b6107fd565b005b6102b261081d565b6040516102bf91906125cd565b60405180910390f35b6102d0610875565b6040516102dd919061264e565b60405180910390f35b61030060048036038101906102fb919061239d565b61089b565b60405161030d919061240b565b60405180910390f35b610330600480360381019061032b9190612669565b6108ad565b60405161033d91906124a1565b60405180910390f35b610360600480360381019061035b919061239d565b610967565b60405161036d919061240b565b60405180910390f35b61037e6109ce565b60405161038b9190612345565b60405180910390f35b6103ae60048036038101906103a991906126c2565b610a60565b005b6103b8610a76565b6040516103c591906125cd565b60405180910390f35b6103e860048036038101906103e39190612452565b610b0b565b6040516103f591906124a1565b60405180910390f35b610406610b3c565b005b610422600480360381019061041d9190612837565b610c5b565b005b61043e6004803603810190610439919061239d565b610c78565b60405161044b919061240b565b60405180910390f35b61046e6004803603810190610469919061239d565b610cbd565b60405161047b9190612345565b60405180910390f35b61049e600480360381019061049991906128ba565b610d26565b005b6104ba60048036038101906104b591906128fa565b6110a6565b6040516104c7919061229a565b60405180910390f35b6104d861113a565b005b6104f460048036038101906104ef919061239d565b611328565b604051610504949392919061293a565b60405180910390f35b60007f80ac58cd000000000000000000000000000000000000000000000000000000007bffffffffffffffffffffffffffffffffffffffffffffffffffffffff1916827bffffffffffffffffffffffffffffffffffffffffffffffffffffffff191614806105d857507f5b5e139f000000000000000000000000000000000000000000000000000000007bffffffffffffffffffffffffffffffffffffffffffffffffffffffff1916827bffffffffffffffffffffffffffffffffffffffffffffffffffffffff1916145b806105e857506105e7826113a5565b5b9050919050565b6060600080546105fe906129ae565b80601f016020809104026020016040519081016040528092919081815260200182805461062a906129ae565b80156106775780601f1061064c57610100808354040283529160200191610677565b820191906000526020600020905b81548152906001019060200180831161065a57829003601f168201915b5050505050905090565b600061068c8261140f565b5061069682611497565b9050919050565b6106af82826106aa6114d4565b6114dc565b5050565b600981815481106106c357600080fd5b906000526020600020016000915090505481565b600073ffffffffffffffffffffffffffffffffffffffff168273ffffffffffffffffffffffffffffffffffffffff16036107495760006040517f64a0ae92000000000000000000000000000000000000000000000000000000008152600401610740919061240b565b60405180910390fd5b600061075d83836107586114d4565b6114ee565b90508373ffffffffffffffffffffffffffffffffffffffff168173ffffffffffffffffffffffffffffffffffffffff16146107d3578382826040517f64283d7b0000000000000000000000000000000000000000000000000000000081526004016107ca939291906129df565b60405180910390fd5b50505050565b600881815481106107e957600080fd5b906000526020600020016000915090505481565b61081883838360405180602001604052806000815250610c5b565b505050565b6060600880548060200260200160405190810160405280929190818152602001828054801561086b57602002820191906000526020600020905b815481526020019060010190808311610857575b5050505050905090565b600a60009054906101000a900473ffffffffffffffffffffffffffffffffffffffff1681565b60006108a68261140f565b9050919050565b60008073ffffffffffffffffffffffffffffffffffffffff168273ffffffffffffffffffffffffffffffffffffffff16036109205760006040517f89c62b64000000000000000000000000000000000000000000000000000000008152600401610917919061240b565b60405180910390fd5b600360008373ffffffffffffffffffffffffffffffffffffffff1673ffffffffffffffffffffffffffffffffffffffff168152602001908152602001600020549050919050565b6000426006600084815260200190815260200160002060020154106109c4576006600083815260200190815260200160002060010160009054906101000a900473ffffffffffffffffffffffffffffffffffffffff1690506109c9565b600090505b919050565b6060600180546109dd906129ae565b80601f0160208091040260200160405190810160405280929190818152602001828054610a09906129ae565b8015610a565780601f10610a2b57610100808354040283529160200191610a56565b820191906000526020600020905b815481529060010190602001808311610a3957829003601f168201915b5050505050905090565b610a72610a6b6114d4565b8383611708565b5050565b6060600760003373ffffffffffffffffffffffffffffffffffffffff1673ffffffffffffffffffffffffffffffffffffffff168152602001908152602001600020805480602002602001604051908101604052809291908181526020018280548015610b0157602002820191906000526020600020905b815481526020019060010190808311610aed575b5050505050905090565b60076020528160005260406000208181548110610b2757600080fd5b90600052602060002001600091509150505481565b60005b600980549050811015610c5857426006600060098481548110610b6557610b64612a16565b5b90600052602060002001548152602001908152602001600020600201541015610c455760016006600060098481548110610ba257610ba1612a16565b5b9060005260206000200154815260200190815260200160002060030160006101000a81548160ff021916908315150217905550600860098281548110610beb57610bea612a16565b5b90600052602060002001549080600181540180825580915050600190039060005260206000200160009091909190915055610c446009808381548110610c3457610c33612a16565b5b9060005260206000200154611877565b5b8080610c5090612a74565b915050610b3f565b50565b610c668484846106d7565b610c728484848461193d565b50505050565b6000806006600084815260200190815260200160002090508060000160009054906101000a900473ffffffffffffffffffffffffffffffffffffffff16915050919050565b6060610cc88261140f565b506000610cd3611af4565b90506000815111610cf35760405180602001604052806000815250610d1e565b80610cfd84611b0b565b604051602001610d0e929190612af8565b6040516020818303038152906040525b915050919050565b3373ffffffffffffffffffffffffffffffffffffffff16610d4683610c78565b73ffffffffffffffffffffffffffffffffffffffff1603610d9c576040517f08c379a0000000000000000000000000000000000000000000000000000000008152600401610d9390612b68565b60405180910390fd5b60006006600084815260200190815260200160002090508060030160009054906101000a900460ff16610e04576040517f08c379a0000000000000000000000000000000000000000000000000000000008152600401610dfb90612bfa565b60405180910390fd5b6000610e1083610e149190612c49565b905080600a60009054906101000a900473ffffffffffffffffffffffffffffffffffffffff1673ffffffffffffffffffffffffffffffffffffffff166370a08231336040518263ffffffff1660e01b8152600401610e72919061240b565b602060405180830381865afa158015610e8f573d6000803e3d6000fd5b505050506040513d601f19601f82011682018060405250810190610eb39190612c8f565b1015610ef4576040517f08c379a0000000000000000000000000000000000000000000000000000000008152600401610eeb90612d08565b60405180910390fd5b600a60009054906101000a900473ffffffffffffffffffffffffffffffffffffffff1673ffffffffffffffffffffffffffffffffffffffff166323b872dd338460000160009054906101000a900473ffffffffffffffffffffffffffffffffffffffff16846040518463ffffffff1660e01b8152600401610f7793929190612d28565b6020604051808303816000875af1158015610f96573d6000803e3d6000fd5b505050506040513d601f19601f82011682018060405250810190610fba9190612d74565b5060008260030160006101000a81548160ff021916908315150217905550338260010160006101000a81548173ffffffffffffffffffffffffffffffffffffffff021916908373ffffffffffffffffffffffffffffffffffffffff16021790555082426110279190612da1565b826002018190555061103a600885611877565b60098490806001815401808255809150506001900390600052602060002001600090919091909150557f8879d78706834dc00d82232992f71250fab6a1f70b08260968253950083d88cd843342866040516110989493929190612dd5565b60405180910390a150505050565b6000600560008473ffffffffffffffffffffffffffffffffffffffff1673ffffffffffffffffffffffffffffffffffffffff16815260200190815260200160002060008373ffffffffffffffffffffffffffffffffffffffff1673ffffffffffffffffffffffffffffffffffffffff16815260200190815260200160002060009054906101000a900460ff16905092915050565b600042443360405160200161115193929190612e83565b6040516020818303038152906040528051906020012060001c90506111763382611bd9565b60405180608001604052803373ffffffffffffffffffffffffffffffffffffffff168152602001600073ffffffffffffffffffffffffffffffffffffffff16815260200160008152602001600115158152506006600083815260200190815260200160002060008201518160000160006101000a81548173ffffffffffffffffffffffffffffffffffffffff021916908373ffffffffffffffffffffffffffffffffffffffff16021790555060208201518160010160006101000a81548173ffffffffffffffffffffffffffffffffffffffff021916908373ffffffffffffffffffffffffffffffffffffffff1602179055506040820151816002015560608201518160030160006101000a81548160ff021916908315150217905550905050600760003373ffffffffffffffffffffffffffffffffffffffff1673ffffffffffffffffffffffffffffffffffffffff168152602001908152602001600020819080600181540180825580915050600190039060005260206000200160009091909190915055600881908060018154018082558091505060019003906000526020600020016000909190919091505550565b60066020528060005260406000206000915090508060000160009054906101000a900473ffffffffffffffffffffffffffffffffffffffff16908060010160009054906101000a900473ffffffffffffffffffffffffffffffffffffffff16908060020154908060030160009054906101000a900460ff16905084565b60007f01ffc9a7000000000000000000000000000000000000000000000000000000007bffffffffffffffffffffffffffffffffffffffffffffffffffffffff1916827bffffffffffffffffffffffffffffffffffffffffffffffffffffffff1916149050919050565b60008061141b83611bf7565b9050600073ffffffffffffffffffffffffffffffffffffffff168173ffffffffffffffffffffffffffffffffffffffff160361148e57826040517f7e27328900000000000000000000000000000000000000000000000000000000815260040161148591906124a1565b60405180910390fd5b80915050919050565b60006004600083815260200190815260200160002060009054906101000a900473ffffffffffffffffffffffffffffffffffffffff169050919050565b600033905090565b6114e98383836001611c34565b505050565b6000806114fa84611bf7565b9050600073ffffffffffffffffffffffffffffffffffffffff168373ffffffffffffffffffffffffffffffffffffffff161461153c5761153b818486611df9565b5b600073ffffffffffffffffffffffffffffffffffffffff168173ffffffffffffffffffffffffffffffffffffffff16146115cd5761157e600085600080611c34565b6001600360008373ffffffffffffffffffffffffffffffffffffffff1673ffffffffffffffffffffffffffffffffffffffff168152602001908152602001600020600082825403925050819055505b600073ffffffffffffffffffffffffffffffffffffffff168573ffffffffffffffffffffffffffffffffffffffff1614611650576001600360008773ffffffffffffffffffffffffffffffffffffffff1673ffffffffffffffffffffffffffffffffffffffff168152602001908152602001600020600082825401925050819055505b846002600086815260200190815260200160002060006101000a81548173ffffffffffffffffffffffffffffffffffffffff021916908373ffffffffffffffffffffffffffffffffffffffff160217905550838573ffffffffffffffffffffffffffffffffffffffff168273ffffffffffffffffffffffffffffffffffffffff167fddf252ad1be2c89b69c2b068fc378daa952ba7f163c4a11628f55a4df523b3ef60405160405180910390a4809150509392505050565b600073ffffffffffffffffffffffffffffffffffffffff168273ffffffffffffffffffffffffffffffffffffffff160361177957816040517f5b08ba18000000000000000000000000000000000000000000000000000000008152600401611770919061240b565b60405180910390fd5b80600560008573ffffffffffffffffffffffffffffffffffffffff1673ffffffffffffffffffffffffffffffffffffffff16815260200190815260200160002060008473ffffffffffffffffffffffffffffffffffffffff1673ffffffffffffffffffffffffffffffffffffffff16815260200190815260200160002060006101000a81548160ff0219169083151502179055508173ffffffffffffffffffffffffffffffffffffffff168373ffffffffffffffffffffffffffffffffffffffff167f17307eab39ab6107e8899845ad3d59bd9653f200f220920489ca2b5937696c318360405161186a919061229a565b60405180910390a3505050565b60005b8280549050811015611938578183828154811061189a57611899612a16565b5b9060005260206000200154036119255782600184805490506118bc9190612ec0565b815481106118cd576118cc612a16565b5b90600052602060002001548382815481106118eb576118ea612a16565b5b90600052602060002001819055508280548061190a57611909612ef4565b5b60019003818190600052602060002001600090559055611938565b808061193090612a74565b91505061187a565b505050565b60008373ffffffffffffffffffffffffffffffffffffffff163b1115611aee578273ffffffffffffffffffffffffffffffffffffffff1663150b7a026119816114d4565b8685856040518563ffffffff1660e01b81526004016119a39493929190612f78565b6020604051808303816000875af19250505080156119df57506040513d601f19601f820116820180604052508101906119dc9190612fd9565b60015b611a63573d8060008114611a0f576040519150601f19603f3d011682016040523d82523d6000602084013e611a14565b606091505b506000815103611a5b57836040517f64a0ae92000000000000000000000000000000000000000000000000000000008152600401611a52919061240b565b60405180910390fd5b805181602001fd5b63150b7a0260e01b7bffffffffffffffffffffffffffffffffffffffffffffffffffffffff1916817bffffffffffffffffffffffffffffffffffffffffffffffffffffffff191614611aec57836040517f64a0ae92000000000000000000000000000000000000000000000000000000008152600401611ae3919061240b565b60405180910390fd5b505b50505050565b606060405180602001604052806000815250905090565b606060006001611b1a84611ebd565b01905060008167ffffffffffffffff811115611b3957611b3861270c565b5b6040519080825280601f01601f191660200182016040528015611b6b5781602001600182028036833780820191505090505b509050600082602001820190505b600115611bce578080600190039150507f3031323334353637383961626364656600000000000000000000000000000000600a86061a8153600a8581611bc257611bc1612c1a565b5b04945060008503611b79575b819350505050919050565b611bf3828260405180602001604052806000815250612010565b5050565b60006002600083815260200190815260200160002060009054906101000a900473ffffffffffffffffffffffffffffffffffffffff169050919050565b8080611c6d5750600073ffffffffffffffffffffffffffffffffffffffff168273ffffffffffffffffffffffffffffffffffffffff1614155b15611da1576000611c7d8461140f565b9050600073ffffffffffffffffffffffffffffffffffffffff168373ffffffffffffffffffffffffffffffffffffffff1614158015611ce857508273ffffffffffffffffffffffffffffffffffffffff168173ffffffffffffffffffffffffffffffffffffffff1614155b8015611cfb5750611cf981846110a6565b155b15611d3d57826040517fa9fbf51f000000000000000000000000000000000000000000000000000000008152600401611d34919061240b565b60405180910390fd5b8115611d9f57838573ffffffffffffffffffffffffffffffffffffffff168273ffffffffffffffffffffffffffffffffffffffff167f8c5be1e5ebec7d5bd14f71427d1e84f3dd0314c0f7b2291e5b200ac8c7c3b92560405160405180910390a45b505b836004600085815260200190815260200160002060006101000a81548173ffffffffffffffffffffffffffffffffffffffff021916908373ffffffffffffffffffffffffffffffffffffffff16021790555050505050565b611e0483838361202c565b611eb857600073ffffffffffffffffffffffffffffffffffffffff168373ffffffffffffffffffffffffffffffffffffffff1603611e7957806040517f7e273289000000000000000000000000000000000000000000000000000000008152600401611e7091906124a1565b60405180910390fd5b81816040517f177e802f000000000000000000000000000000000000000000000000000000008152600401611eaf929190613006565b60405180910390fd5b505050565b600080600090507a184f03e93ff9f4daa797ed6e38ed64bf6a1f0100000000000000008310611f1b577a184f03e93ff9f4daa797ed6e38ed64bf6a1f0100000000000000008381611f1157611f10612c1a565b5b0492506040810190505b6d04ee2d6d415b85acef81000000008310611f58576d04ee2d6d415b85acef81000000008381611f4e57611f4d612c1a565b5b0492506020810190505b662386f26fc100008310611f8757662386f26fc100008381611f7d57611f7c612c1a565b5b0492506010810190505b6305f5e1008310611fb0576305f5e1008381611fa657611fa5612c1a565b5b0492506008810190505b6127108310611fd5576127108381611fcb57611fca612c1a565b5b0492506004810190505b60648310611ff85760648381611fee57611fed612c1a565b5b0492506002810190505b600a8310612007576001810190505b80915050919050565b61201a83836120ed565b612027600084848461193d565b505050565b60008073ffffffffffffffffffffffffffffffffffffffff168373ffffffffffffffffffffffffffffffffffffffff16141580156120e457508273ffffffffffffffffffffffffffffffffffffffff168473ffffffffffffffffffffffffffffffffffffffff1614806120a557506120a484846110a6565b5b806120e357508273ffffffffffffffffffffffffffffffffffffffff166120cb83611497565b73ffffffffffffffffffffffffffffffffffffffff16145b5b90509392505050565b600073ffffffffffffffffffffffffffffffffffffffff168273ffffffffffffffffffffffffffffffffffffffff160361215f5760006040517f64a0ae92000000000000000000000000000000000000000000000000000000008152600401612156919061240b565b60405180910390fd5b600061216d838360006114ee565b9050600073ffffffffffffffffffffffffffffffffffffffff168173ffffffffffffffffffffffffffffffffffffffff16146121e15760006040517f73c6ac6e0000000000000000000000000000000000000000000000000000000081526004016121d8919061240b565b60405180910390fd5b505050565b6000604051905090565b600080fd5b600080fd5b60007fffffffff0000000000000000000000000000000000000000000000000000000082169050919050565b61222f816121fa565b811461223a57600080fd5b50565b60008135905061224c81612226565b92915050565b600060208284031215612268576122676121f0565b5b60006122768482850161223d565b91505092915050565b60008115159050919050565b6122948161227f565b82525050565b60006020820190506122af600083018461228b565b92915050565b600081519050919050565b600082825260208201905092915050565b60005b838110156122ef5780820151818401526020810190506122d4565b60008484015250505050565b6000601f19601f8301169050919050565b6000612317826122b5565b61232181856122c0565b93506123318185602086016122d1565b61233a816122fb565b840191505092915050565b6000602082019050818103600083015261235f818461230c565b905092915050565b6000819050919050565b61237a81612367565b811461238557600080fd5b50565b60008135905061239781612371565b92915050565b6000602082840312156123b3576123b26121f0565b5b60006123c184828501612388565b91505092915050565b600073ffffffffffffffffffffffffffffffffffffffff82169050919050565b60006123f5826123ca565b9050919050565b612405816123ea565b82525050565b600060208201905061242060008301846123fc565b92915050565b61242f816123ea565b811461243a57600080fd5b50565b60008135905061244c81612426565b92915050565b60008060408385031215612469576124686121f0565b5b60006124778582860161243d565b925050602061248885828601612388565b9150509250929050565b61249b81612367565b82525050565b60006020820190506124b66000830184612492565b92915050565b6000806000606084860312156124d5576124d46121f0565b5b60006124e38682870161243d565b93505060206124f48682870161243d565b925050604061250586828701612388565b9150509250925092565b600081519050919050565b600082825260208201905092915050565b6000819050602082019050919050565b61254481612367565b82525050565b6000612556838361253b565b60208301905092915050565b6000602082019050919050565b600061257a8261250f565b612584818561251a565b935061258f8361252b565b8060005b838110156125c05781516125a7888261254a565b97506125b283612562565b925050600181019050612593565b5085935050505092915050565b600060208201905081810360008301526125e7818461256f565b905092915050565b6000819050919050565b600061261461260f61260a846123ca565b6125ef565b6123ca565b9050919050565b6000612626826125f9565b9050919050565b60006126388261261b565b9050919050565b6126488161262d565b82525050565b6000602082019050612663600083018461263f565b92915050565b60006020828403121561267f5761267e6121f0565b5b600061268d8482850161243d565b91505092915050565b61269f8161227f565b81146126aa57600080fd5b50565b6000813590506126bc81612696565b92915050565b600080604083850312156126d9576126d86121f0565b5b60006126e78582860161243d565b92505060206126f8858286016126ad565b9150509250929050565b600080fd5b600080fd5b7f4e487b7100000000000000000000000000000000000000000000000000000000600052604160045260246000fd5b612744826122fb565b810181811067ffffffffffffffff821117156127635761276261270c565b5b80604052505050565b60006127766121e6565b9050612782828261273b565b919050565b600067ffffffffffffffff8211156127a2576127a161270c565b5b6127ab826122fb565b9050602081019050919050565b82818337600083830152505050565b60006127da6127d584612787565b61276c565b9050828152602081018484840111156127f6576127f5612707565b5b6128018482856127b8565b509392505050565b600082601f83011261281e5761281d612702565b5b813561282e8482602086016127c7565b91505092915050565b60008060008060808587031215612851576128506121f0565b5b600061285f8782880161243d565b94505060206128708782880161243d565b935050604061288187828801612388565b925050606085013567ffffffffffffffff8111156128a2576128a16121f5565b5b6128ae87828801612809565b91505092959194509250565b600080604083850312156128d1576128d06121f0565b5b60006128df85828601612388565b92505060206128f085828601612388565b9150509250929050565b60008060408385031215612911576129106121f0565b5b600061291f8582860161243d565b92505060206129308582860161243d565b9150509250929050565b600060808201905061294f60008301876123fc565b61295c60208301866123fc565b6129696040830185612492565b612976606083018461228b565b95945050505050565b7f4e487b7100000000000000000000000000000000000000000000000000000000600052602260045260246000fd5b600060028204905060018216806129c657607f821691505b6020821081036129d9576129d861297f565b5b50919050565b60006060820190506129f460008301866123fc565b612a016020830185612492565b612a0e60408301846123fc565b949350505050565b7f4e487b7100000000000000000000000000000000000000000000000000000000600052603260045260246000fd5b7f4e487b7100000000000000000000000000000000000000000000000000000000600052601160045260246000fd5b6000612a7f82612367565b91507fffffffffffffffffffffffffffffffffffffffffffffffffffffffffffffffff8203612ab157612ab0612a45565b5b600182019050919050565b600081905092915050565b6000612ad2826122b5565b612adc8185612abc565b9350612aec8185602086016122d1565b80840191505092915050565b6000612b048285612ac7565b9150612b108284612ac7565b91508190509392505050565b7f596f752061726520746865206f776e6572206f66207468697320636172000000600082015250565b6000612b52601d836122c0565b9150612b5d82612b1c565b602082019050919050565b60006020820190508181036000830152612b8181612b45565b9050919050565b7f436172206973206e6f7420617661696c61626c6520666f7220626f72726f776960008201527f6e67000000000000000000000000000000000000000000000000000000000000602082015250565b6000612be46022836122c0565b9150612bef82612b88565b604082019050919050565b60006020820190508181036000830152612c1381612bd7565b9050919050565b7f4e487b7100000000000000000000000000000000000000000000000000000000600052601260045260246000fd5b6000612c5482612367565b9150612c5f83612367565b925082612c6f57612c6e612c1a565b5b828204905092915050565b600081519050612c8981612371565b92915050565b600060208284031215612ca557612ca46121f0565b5b6000612cb384828501612c7a565b91505092915050565b7f496e73756666696369656e742062616c616e6365000000000000000000000000600082015250565b6000612cf26014836122c0565b9150612cfd82612cbc565b602082019050919050565b60006020820190508181036000830152612d2181612ce5565b9050919050565b6000606082019050612d3d60008301866123fc565b612d4a60208301856123fc565b612d576040830184612492565b949350505050565b600081519050612d6e81612696565b92915050565b600060208284031215612d8a57612d896121f0565b5b6000612d9884828501612d5f565b91505092915050565b6000612dac82612367565b9150612db783612367565b9250828201905080821115612dcf57612dce612a45565b5b92915050565b6000608082019050612dea6000830187612492565b612df760208301866123fc565b612e046040830185612492565b612e116060830184612492565b95945050505050565b6000819050919050565b612e35612e3082612367565b612e1a565b82525050565b60008160601b9050919050565b6000612e5382612e3b565b9050919050565b6000612e6582612e48565b9050919050565b612e7d612e78826123ea565b612e5a565b82525050565b6000612e8f8286612e24565b602082019150612e9f8285612e24565b602082019150612eaf8284612e6c565b601482019150819050949350505050565b6000612ecb82612367565b9150612ed683612367565b9250828203905081811115612eee57612eed612a45565b5b92915050565b7f4e487b7100000000000000000000000000000000000000000000000000000000600052603160045260246000fd5b600081519050919050565b600082825260208201905092915050565b6000612f4a82612f23565b612f548185612f2e565b9350612f648185602086016122d1565b612f6d816122fb565b840191505092915050565b6000608082019050612f8d60008301876123fc565b612f9a60208301866123fc565b612fa76040830185612492565b8181036060830152612fb98184612f3f565b905095945050505050565b600081519050612fd381612226565b92915050565b600060208284031215612fef57612fee6121f0565b5b6000612ffd84828501612fc4565b91505092915050565b600060408201905061301b60008301856123fc565b6130286020830184612492565b939250505056fea26469706673582212200d132246029b7c7d88526d8ebe1969dd3096c9902362067528224e64effa928e64736f6c63430008140033",
  "linkReferences": {},
  "deployedLinkReferences": {}
}